{
  "_format": "hh-sol-artifact-1",
  "contractName": "EssentialForwarder",
  "sourceName": "contracts/Forwarder.sol",
  "abi": [
    {
      "inputs": [
        {
          "internalType": "string",
          "name": "name",
          "type": "string"
        }
      ],
      "stateMutability": "nonpayable",
      "type": "constructor"
    },
    {
      "inputs": [
        {
          "internalType": "address",
          "name": "sender",
          "type": "address"
        },
        {
          "internalType": "string[1]",
          "name": "urls",
          "type": "string[1]"
        },
        {
          "internalType": "bytes",
          "name": "callData",
          "type": "bytes"
        },
        {
          "internalType": "bytes4",
          "name": "callbackFunction",
          "type": "bytes4"
        },
        {
          "internalType": "bytes",
          "name": "extraData",
          "type": "bytes"
        }
      ],
      "name": "OffchainLookup",
      "type": "error"
    },
    {
      "anonymous": false,
      "inputs": [
        {
          "indexed": true,
          "internalType": "bytes32",
          "name": "role",
          "type": "bytes32"
        },
        {
          "indexed": true,
          "internalType": "bytes32",
          "name": "previousAdminRole",
          "type": "bytes32"
        },
        {
          "indexed": true,
          "internalType": "bytes32",
          "name": "newAdminRole",
          "type": "bytes32"
        }
      ],
      "name": "RoleAdminChanged",
      "type": "event"
    },
    {
      "anonymous": false,
      "inputs": [
        {
          "indexed": true,
          "internalType": "bytes32",
          "name": "role",
          "type": "bytes32"
        },
        {
          "indexed": true,
          "internalType": "address",
          "name": "account",
          "type": "address"
        },
        {
          "indexed": true,
          "internalType": "address",
          "name": "sender",
          "type": "address"
        }
      ],
      "name": "RoleGranted",
      "type": "event"
    },
    {
      "anonymous": false,
      "inputs": [
        {
          "indexed": true,
          "internalType": "bytes32",
          "name": "role",
          "type": "bytes32"
        },
        {
          "indexed": true,
          "internalType": "address",
          "name": "account",
          "type": "address"
        },
        {
          "indexed": true,
          "internalType": "address",
          "name": "sender",
          "type": "address"
        }
      ],
      "name": "RoleRevoked",
      "type": "event"
    },
    {
      "anonymous": false,
      "inputs": [
        {
          "indexed": true,
          "internalType": "address",
          "name": "owner",
          "type": "address"
        },
        {
          "indexed": true,
          "internalType": "address",
          "name": "authorized",
          "type": "address"
        },
        {
          "indexed": true,
          "internalType": "uint256",
          "name": "length",
          "type": "uint256"
        }
      ],
      "name": "Session",
      "type": "event"
    },
    {
      "inputs": [],
      "name": "ADMIN_ROLE",
      "outputs": [
        {
          "internalType": "bytes32",
          "name": "",
          "type": "bytes32"
        }
      ],
      "stateMutability": "view",
      "type": "function"
    },
    {
      "inputs": [],
      "name": "DEFAULT_ADMIN_ROLE",
      "outputs": [
        {
          "internalType": "bytes32",
          "name": "",
          "type": "bytes32"
        }
      ],
      "stateMutability": "view",
      "type": "function"
    },
    {
      "inputs": [
        {
          "internalType": "address",
          "name": "account",
          "type": "address"
        },
        {
          "internalType": "uint256",
          "name": "nonce",
          "type": "uint256"
        },
        {
          "internalType": "address",
          "name": "nftContract",
          "type": "address"
        },
        {
          "internalType": "uint256",
          "name": "tokenId",
          "type": "uint256"
        }
      ],
      "name": "createMessage",
      "outputs": [
        {
          "internalType": "bytes32",
          "name": "",
          "type": "bytes32"
        }
      ],
      "stateMutability": "view",
      "type": "function"
    },
    {
      "inputs": [
        {
          "internalType": "address",
          "name": "authorized",
          "type": "address"
        },
        {
          "internalType": "uint256",
          "name": "length",
          "type": "uint256"
        }
      ],
      "name": "createSession",
      "outputs": [],
      "stateMutability": "nonpayable",
      "type": "function"
    },
    {
      "inputs": [
        {
          "internalType": "bytes",
          "name": "response",
          "type": "bytes"
        },
        {
          "internalType": "bytes",
          "name": "extraData",
          "type": "bytes"
        }
      ],
      "name": "executeWithProof",
      "outputs": [
        {
          "internalType": "bool",
          "name": "",
          "type": "bool"
        },
        {
          "internalType": "bytes",
          "name": "",
          "type": "bytes"
        }
      ],
      "stateMutability": "payable",
      "type": "function"
    },
    {
      "inputs": [
        {
          "internalType": "address",
          "name": "from",
          "type": "address"
        }
      ],
      "name": "getNonce",
      "outputs": [
        {
          "internalType": "uint256",
          "name": "",
          "type": "uint256"
        }
      ],
      "stateMutability": "view",
      "type": "function"
    },
    {
      "inputs": [
        {
          "internalType": "bytes32",
          "name": "role",
          "type": "bytes32"
        }
      ],
      "name": "getRoleAdmin",
      "outputs": [
        {
          "internalType": "bytes32",
          "name": "",
          "type": "bytes32"
        }
      ],
      "stateMutability": "view",
      "type": "function"
    },
    {
      "inputs": [
        {
          "internalType": "bytes32",
          "name": "role",
          "type": "bytes32"
        },
        {
          "internalType": "address",
          "name": "account",
          "type": "address"
        }
      ],
      "name": "grantRole",
      "outputs": [],
      "stateMutability": "nonpayable",
      "type": "function"
    },
    {
      "inputs": [
        {
          "internalType": "bytes32",
          "name": "role",
          "type": "bytes32"
        },
        {
          "internalType": "address",
          "name": "account",
          "type": "address"
        }
      ],
      "name": "hasRole",
      "outputs": [
        {
          "internalType": "bool",
          "name": "",
          "type": "bool"
        }
      ],
      "stateMutability": "view",
      "type": "function"
    },
    {
      "inputs": [],
      "name": "invalidateSession",
      "outputs": [],
      "stateMutability": "nonpayable",
      "type": "function"
    },
    {
      "inputs": [],
      "name": "ownershipSigner",
      "outputs": [
        {
          "internalType": "address",
          "name": "",
          "type": "address"
        }
      ],
      "stateMutability": "view",
      "type": "function"
    },
    {
      "inputs": [
        {
          "components": [
            {
              "internalType": "address",
              "name": "from",
              "type": "address"
            },
            {
              "internalType": "address",
              "name": "authorizer",
              "type": "address"
            },
            {
              "internalType": "address",
              "name": "to",
              "type": "address"
            },
            {
              "internalType": "address",
              "name": "nftContract",
              "type": "address"
            },
            {
              "internalType": "uint256",
              "name": "tokenId",
              "type": "uint256"
            },
            {
              "internalType": "uint256",
              "name": "value",
              "type": "uint256"
            },
            {
              "internalType": "uint256",
              "name": "gas",
              "type": "uint256"
            },
            {
              "internalType": "uint256",
              "name": "nonce",
              "type": "uint256"
            },
            {
              "internalType": "bytes",
              "name": "data",
              "type": "bytes"
            }
          ],
          "internalType": "struct IForwardRequest.ForwardRequest",
          "name": "req",
          "type": "tuple"
        },
        {
          "internalType": "bytes",
          "name": "signature",
          "type": "bytes"
        }
      ],
      "name": "preflight",
      "outputs": [],
      "stateMutability": "view",
      "type": "function"
    },
    {
      "inputs": [
        {
          "internalType": "bytes32",
          "name": "role",
          "type": "bytes32"
        },
        {
          "internalType": "address",
          "name": "account",
          "type": "address"
        }
      ],
      "name": "renounceRole",
      "outputs": [],
      "stateMutability": "nonpayable",
      "type": "function"
    },
    {
      "inputs": [
        {
          "internalType": "bytes32",
          "name": "role",
          "type": "bytes32"
        },
        {
          "internalType": "address",
          "name": "account",
          "type": "address"
        }
      ],
      "name": "revokeRole",
      "outputs": [],
      "stateMutability": "nonpayable",
      "type": "function"
    },
    {
      "inputs": [
        {
          "internalType": "bytes4",
          "name": "interfaceId",
          "type": "bytes4"
        }
      ],
      "name": "supportsInterface",
      "outputs": [
        {
          "internalType": "bool",
          "name": "",
          "type": "bool"
        }
      ],
      "stateMutability": "view",
      "type": "function"
    },
    {
      "inputs": [
        {
          "components": [
            {
              "internalType": "address",
              "name": "from",
              "type": "address"
            },
            {
              "internalType": "address",
              "name": "authorizer",
              "type": "address"
            },
            {
              "internalType": "address",
              "name": "to",
              "type": "address"
            },
            {
              "internalType": "address",
              "name": "nftContract",
              "type": "address"
            },
            {
              "internalType": "uint256",
              "name": "tokenId",
              "type": "uint256"
            },
            {
              "internalType": "uint256",
              "name": "value",
              "type": "uint256"
            },
            {
              "internalType": "uint256",
              "name": "gas",
              "type": "uint256"
            },
            {
              "internalType": "uint256",
              "name": "nonce",
              "type": "uint256"
            },
            {
              "internalType": "bytes",
              "name": "data",
              "type": "bytes"
            }
          ],
          "internalType": "struct IForwardRequest.ForwardRequest",
          "name": "req",
          "type": "tuple"
        },
        {
          "internalType": "bytes",
          "name": "signature",
          "type": "bytes"
        }
      ],
      "name": "verifyOwnershipProof",
      "outputs": [
        {
          "internalType": "bool",
          "name": "",
          "type": "bool"
        }
      ],
      "stateMutability": "view",
      "type": "function"
    }
  ],
  "bytecode": "0x6101406040523480156200001257600080fd5b506040516200395a3803806200395a8339818101604052810190620000389190620003ee565b806040518060400160405280600581526020017f302e302e3100000000000000000000000000000000000000000000000000000081525060008280519060200120905060008280519060200120905060007f8b73c3c69bb8fe3d512ecc4cf759cc79239f7b179b0ffacaa9a75d522b39400f90508260e081815250508161010081815250504660a08181525050620000d88184846200018360201b60201c565b608081815250503073ffffffffffffffffffffffffffffffffffffffff1660c08173ffffffffffffffffffffffffffffffffffffffff1660601b815250508061012081815250505050505050620001396000801b33620001bf60201b60201c565b6200016b7fa49807205ce4d355092ef5a8a18f56e8913cf4a201fbe287825b095693c2177533620001bf60201b60201c565b6200017c33620001d560201b60201c565b5062000616565b60008383834630604051602001620001a095949392919062000466565b6040516020818303038152906040528051906020012090509392505050565b620001d182826200021960201b60201c565b5050565b80600160006101000a81548173ffffffffffffffffffffffffffffffffffffffff021916908373ffffffffffffffffffffffffffffffffffffffff16021790555050565b6200022b82826200030a60201b60201c565b6200030657600160008084815260200190815260200160002060000160008373ffffffffffffffffffffffffffffffffffffffff1673ffffffffffffffffffffffffffffffffffffffff16815260200190815260200160002060006101000a81548160ff021916908315150217905550620002ab6200037460201b60201c565b73ffffffffffffffffffffffffffffffffffffffff168173ffffffffffffffffffffffffffffffffffffffff16837f2f8788117e7eff1d82e926ec794901d17c78024a50270940304540a733656f0d60405160405180910390a45b5050565b600080600084815260200190815260200160002060000160008373ffffffffffffffffffffffffffffffffffffffff1673ffffffffffffffffffffffffffffffffffffffff16815260200190815260200160002060009054906101000a900460ff16905092915050565b600033905090565b6000620003936200038d84620004ec565b620004c3565b905082815260208101848484011115620003ac57600080fd5b620003b98482856200056a565b509392505050565b600082601f830112620003d357600080fd5b8151620003e58482602086016200037c565b91505092915050565b6000602082840312156200040157600080fd5b600082015167ffffffffffffffff8111156200041c57600080fd5b6200042a84828501620003c1565b91505092915050565b6200043e8162000522565b82525050565b6200044f8162000536565b82525050565b620004608162000560565b82525050565b600060a0820190506200047d600083018862000444565b6200048c602083018762000444565b6200049b604083018662000444565b620004aa606083018562000455565b620004b9608083018462000433565b9695505050505050565b6000620004cf620004e2565b9050620004dd8282620005a0565b919050565b6000604051905090565b600067ffffffffffffffff8211156200050a5762000509620005d6565b5b620005158262000605565b9050602081019050919050565b60006200052f8262000540565b9050919050565b6000819050919050565b600073ffffffffffffffffffffffffffffffffffffffff82169050919050565b6000819050919050565b60005b838110156200058a5780820151818401526020810190506200056d565b838111156200059a576000848401525b50505050565b620005ab8262000605565b810181811067ffffffffffffffff82111715620005cd57620005cc620005d6565b5b80604052505050565b7f4e487b7100000000000000000000000000000000000000000000000000000000600052604160045260246000fd5b6000601f19601f8301169050919050565b60805160a05160c05160601c60e05161010051610120516132f16200066960003960006119c601526000611a08015260006119e70152600061191c015260006119720152600061199b01526132f16000f3fe6080604052600436106100f35760003560e01c806375b238fc1161008a578063be0fb87e11610059578063be0fb87e14610362578063d547741f14610379578063dbf0eeef146103a2578063ffb703ee146103d3576100f3565b806375b238fc1461029257806391d14854146102bd5780639c48439f146102fa578063a217fddf14610337576100f3565b80632d0335ab116100c65780632d0335ab146101da5780632f2ff15d1461021757806336568abe1461024057806336ff5f3014610269576100f3565b806301ffc9a7146100f857806312ce42fd146101355780631a929fb114610160578063248a9ca31461019d575b600080fd5b34801561010457600080fd5b5061011f600480360381019061011a9190611f4e565b6103fc565b60405161012c919061280a565b60405180910390f35b34801561014157600080fd5b5061014a610476565b6040516101579190612719565b60405180910390f35b34801561016c57600080fd5b5061018760048036038101906101829190611e86565b6104a0565b6040516101949190612855565b60405180910390f35b3480156101a957600080fd5b506101c460048036038101906101bf9190611ee9565b6105cd565b6040516101d19190612855565b60405180910390f35b3480156101e657600080fd5b5061020160048036038101906101fc9190611e21565b6105ec565b60405161020e9190612af2565b60405180910390f35b34801561022357600080fd5b5061023e60048036038101906102399190611f12565b610635565b005b34801561024c57600080fd5b5061026760048036038101906102629190611f12565b61065e565b005b34801561027557600080fd5b50610290600480360381019061028b9190611fec565b6106e1565b005b34801561029e57600080fd5b506102a7610892565b6040516102b49190612855565b60405180910390f35b3480156102c957600080fd5b506102e460048036038101906102df9190611f12565b6108b6565b6040516102f1919061280a565b60405180910390f35b34801561030657600080fd5b50610321600480360381019061031c919061205c565b610920565b60405161032e919061280a565b60405180910390f35b34801561034357600080fd5b5061034c6109b5565b6040516103599190612855565b60405180910390f35b34801561036e57600080fd5b506103776109bc565b005b34801561038557600080fd5b506103a0600480360381019061039b9190611f12565b610a4b565b005b6103bc60048036038101906103b79190611f77565b610a74565b6040516103ca929190612825565b60405180910390f35b3480156103df57600080fd5b506103fa60048036038101906103f59190611e4a565b610cba565b005b60007f7965db0b000000000000000000000000000000000000000000000000000000007bffffffffffffffffffffffffffffffffffffffffffffffffffffffff1916827bffffffffffffffffffffffffffffffffffffffffffffffffffffffff1916148061046f575061046e82610dec565b5b9050919050565b6000600160009054906101000a900473ffffffffffffffffffffffffffffffffffffffff16905090565b600080600260008773ffffffffffffffffffffffffffffffffffffffff1673ffffffffffffffffffffffffffffffffffffffff1681526020019081526020016000206040518060400160405290816000820160009054906101000a900473ffffffffffffffffffffffffffffffffffffffff1673ffffffffffffffffffffffffffffffffffffffff1673ffffffffffffffffffffffffffffffffffffffff168152602001600182015481525050905080602001514210610595576040517f08c379a000000000000000000000000000000000000000000000000000000000815260040161058c90612a79565b60405180910390fd5b858585856040516020016105ac94939291906127c5565b60405160208183030381529060405280519060200120915050949350505050565b6000806000838152602001908152602001600020600101549050919050565b6000600360008373ffffffffffffffffffffffffffffffffffffffff1673ffffffffffffffffffffffffffffffffffffffff168152602001908152602001600020549050919050565b61063e826105cd565b61064f8161064a610e56565b610e5e565b6106598383610efb565b505050565b610666610e56565b73ffffffffffffffffffffffffffffffffffffffff168173ffffffffffffffffffffffffffffffffffffffff16146106d3576040517f08c379a00000000000000000000000000000000000000000000000000000000081526004016106ca90612a99565b60405180910390fd5b6106dd8282610fdb565b5050565b610738836106ee90612e03565b83838080601f016020809104026020016040519081016040528093929190818152602001838380828437600081840152601f19601f820116905080830192505050505050506110bc565b1561088d573060405180602001604052806040518060400160405280601681526020017f68747470733a2f2f6d69642e6e66696768742e78797a000000000000000000008152508152508460000160208101906107959190611e21565b600360008760000160208101906107ac9190611e21565b73ffffffffffffffffffffffffffffffffffffffff1673ffffffffffffffffffffffffffffffffffffffff168152602001908152602001600020548660600160208101906107fa9190611e21565b876080013560405160200161081294939291906127c5565b60405160208183030381529060405263dbf0eeef60e01b86868660405160200161083e93929190612ab9565b6040516020818303038152906040526040517f0546464e000000000000000000000000000000000000000000000000000000008152600401610884959493929190612734565b60405180910390fd5b505050565b7fa49807205ce4d355092ef5a8a18f56e8913cf4a201fbe287825b095693c2177581565b600080600084815260200190815260200160002060000160008373ffffffffffffffffffffffffffffffffffffffff1673ffffffffffffffffffffffffffffffffffffffff16815260200190815260200160002060009054906101000a900460ff16905092915050565b60008061094761094285600001518660e00151876060015188608001516104a0565b6111d9565b9050600160009054906101000a900473ffffffffffffffffffffffffffffffffffffffff1673ffffffffffffffffffffffffffffffffffffffff16610995848361120990919063ffffffff16565b73ffffffffffffffffffffffffffffffffffffffff161491505092915050565b6000801b81565b3073ffffffffffffffffffffffffffffffffffffffff1663ffb703ee337fffffffffffffffffffffffffffffffffffffffffffffffffffffffffffffffff6040518363ffffffff1660e01b8152600401610a1792919061279c565b600060405180830381600087803b158015610a3157600080fd5b505af1158015610a45573d6000803e3d6000fd5b50505050565b610a54826105cd565b610a6581610a60610e56565b610e5e565b610a6f8383610fdb565b505050565b600060606000808585810190610a8a919061205c565b91509150610adc8289898080601f016020809104026020016040519081016040528093929190818152602001838380828437600081840152601f19601f82011690508083019250505050505050610920565b610b1b576040517f08c379a0000000000000000000000000000000000000000000000000000000008152600401610b12906129f9565b60405180910390fd5b610b2582826110bc565b610b64576040517f08c379a0000000000000000000000000000000000000000000000000000000008152600401610b5b90612a59565b60405180910390fd5b60018260e00151610b759190612c85565b60036000846000015173ffffffffffffffffffffffffffffffffffffffff1673ffffffffffffffffffffffffffffffffffffffff16815260200190815260200160002081905550600080836040015173ffffffffffffffffffffffffffffffffffffffff168460c0015160008661010001518760200151604051602001610bfd92919061265a565b604051602081830303815290604052604051610c199190612643565b600060405180830381858888f193505050503d8060008114610c57576040519150601f19603f3d011682016040523d82523d6000602084013e610c5c565b606091505b5091509150603f8460c00151610c729190612cdb565b5a11610ca7577f4e487b7100000000000000000000000000000000000000000000000000000000600052600160045260246000fd5b8181955095505050505094509492505050565b81600260003373ffffffffffffffffffffffffffffffffffffffff1673ffffffffffffffffffffffffffffffffffffffff16815260200190815260200160002060000160006101000a81548173ffffffffffffffffffffffffffffffffffffffff021916908373ffffffffffffffffffffffffffffffffffffffff1602179055508042610d479190612c85565b600260003373ffffffffffffffffffffffffffffffffffffffff1673ffffffffffffffffffffffffffffffffffffffff16815260200190815260200160002060010181905550808273ffffffffffffffffffffffffffffffffffffffff163373ffffffffffffffffffffffffffffffffffffffff167f1170e4b3e143a792ce7a7af268ecfe7d7b0574438d8040eb89c2bf5b7e6e15d860405160405180910390a45050565b60007f01ffc9a7000000000000000000000000000000000000000000000000000000007bffffffffffffffffffffffffffffffffffffffffffffffffffffffff1916827bffffffffffffffffffffffffffffffffffffffffffffffffffffffff1916149050919050565b600033905090565b610e6882826108b6565b610ef757610e8d8173ffffffffffffffffffffffffffffffffffffffff166014611230565b610e9b8360001c6020611230565b604051602001610eac9291906126df565b6040516020818303038152906040526040517f08c379a0000000000000000000000000000000000000000000000000000000008152600401610eee9190612977565b60405180910390fd5b5050565b610f0582826108b6565b610fd757600160008084815260200190815260200160002060000160008373ffffffffffffffffffffffffffffffffffffffff1673ffffffffffffffffffffffffffffffffffffffff16815260200190815260200160002060006101000a81548160ff021916908315150217905550610f7c610e56565b73ffffffffffffffffffffffffffffffffffffffff168173ffffffffffffffffffffffffffffffffffffffff16837f2f8788117e7eff1d82e926ec794901d17c78024a50270940304540a733656f0d60405160405180910390a45b5050565b610fe582826108b6565b156110b857600080600084815260200190815260200160002060000160008373ffffffffffffffffffffffffffffffffffffffff1673ffffffffffffffffffffffffffffffffffffffff16815260200190815260200160002060006101000a81548160ff02191690831515021790555061105d610e56565b73ffffffffffffffffffffffffffffffffffffffff168173ffffffffffffffffffffffffffffffffffffffff16837ff6391f5c32d9c69d2a47ea670b442974b53935d1edc7fd64eb21e047a839171b60405160405180910390a45b5050565b6000806111498361113b7fdd8f4b70b0f4393e889bd39128a30628a78b61816a9eb8199759e7a349657e488760000151886040015160008a60c001518b60e001518c6101000151805190602001206040516020016111209796959493929190612870565b6040516020818303038152906040528051906020012061152a565b61120990919063ffffffff16565b90508360e0015160036000866000015173ffffffffffffffffffffffffffffffffffffffff1673ffffffffffffffffffffffffffffffffffffffff168152602001908152602001600020541480156111d05750836000015173ffffffffffffffffffffffffffffffffffffffff168173ffffffffffffffffffffffffffffffffffffffff16145b91505092915050565b6000816040516020016111ec9190612682565b604051602081830303815290604052805190602001209050919050565b60008060006112188585611544565b91509150611225816115c7565b819250505092915050565b6060600060028360026112439190612d0c565b61124d9190612c85565b67ffffffffffffffff81111561128c577f4e487b7100000000000000000000000000000000000000000000000000000000600052604160045260246000fd5b6040519080825280601f01601f1916602001820160405280156112be5781602001600182028036833780820191505090505b5090507f30000000000000000000000000000000000000000000000000000000000000008160008151811061131c577f4e487b7100000000000000000000000000000000000000000000000000000000600052603260045260246000fd5b60200101907effffffffffffffffffffffffffffffffffffffffffffffffffffffffffffff1916908160001a9053507f7800000000000000000000000000000000000000000000000000000000000000816001815181106113a6577f4e487b7100000000000000000000000000000000000000000000000000000000600052603260045260246000fd5b60200101907effffffffffffffffffffffffffffffffffffffffffffffffffffffffffffff1916908160001a905350600060018460026113e69190612d0c565b6113f09190612c85565b90505b60018111156114dc577f3031323334353637383961626364656600000000000000000000000000000000600f861660108110611458577f4e487b7100000000000000000000000000000000000000000000000000000000600052603260045260246000fd5b1a60f81b828281518110611495577f4e487b7100000000000000000000000000000000000000000000000000000000600052603260045260246000fd5b60200101907effffffffffffffffffffffffffffffffffffffffffffffffffffffffffffff1916908160001a905350600485901c9450806114d590612e58565b90506113f3565b5060008414611520576040517f08c379a0000000000000000000000000000000000000000000000000000000008152600401611517906129b9565b60405180910390fd5b8091505092915050565b600061153d611537611918565b83611a32565b9050919050565b6000806041835114156115865760008060006020860151925060408601519150606086015160001a905061157a87828585611a65565b945094505050506115c0565b6040835114156115b75760008060208501519150604085015190506115ac868383611b72565b9350935050506115c0565b60006002915091505b9250929050565b60006004811115611601577f4e487b7100000000000000000000000000000000000000000000000000000000600052602160045260246000fd5b81600481111561163a577f4e487b7100000000000000000000000000000000000000000000000000000000600052602160045260246000fd5b141561164557611915565b6001600481111561167f577f4e487b7100000000000000000000000000000000000000000000000000000000600052602160045260246000fd5b8160048111156116b8577f4e487b7100000000000000000000000000000000000000000000000000000000600052602160045260246000fd5b14156116f9576040517f08c379a00000000000000000000000000000000000000000000000000000000081526004016116f090612999565b60405180910390fd5b60026004811115611733577f4e487b7100000000000000000000000000000000000000000000000000000000600052602160045260246000fd5b81600481111561176c577f4e487b7100000000000000000000000000000000000000000000000000000000600052602160045260246000fd5b14156117ad576040517f08c379a00000000000000000000000000000000000000000000000000000000081526004016117a4906129d9565b60405180910390fd5b600360048111156117e7577f4e487b7100000000000000000000000000000000000000000000000000000000600052602160045260246000fd5b816004811115611820577f4e487b7100000000000000000000000000000000000000000000000000000000600052602160045260246000fd5b1415611861576040517f08c379a000000000000000000000000000000000000000000000000000000000815260040161185890612a19565b60405180910390fd5b60048081111561189a577f4e487b7100000000000000000000000000000000000000000000000000000000600052602160045260246000fd5b8160048111156118d3577f4e487b7100000000000000000000000000000000000000000000000000000000600052602160045260246000fd5b1415611914576040517f08c379a000000000000000000000000000000000000000000000000000000000815260040161190b90612a39565b60405180910390fd5b5b50565b60007f000000000000000000000000000000000000000000000000000000000000000073ffffffffffffffffffffffffffffffffffffffff163073ffffffffffffffffffffffffffffffffffffffff1614801561199457507f000000000000000000000000000000000000000000000000000000000000000046145b156119c1577f00000000000000000000000000000000000000000000000000000000000000009050611a2f565b611a2c7f00000000000000000000000000000000000000000000000000000000000000007f00000000000000000000000000000000000000000000000000000000000000007f0000000000000000000000000000000000000000000000000000000000000000611bd1565b90505b90565b60008282604051602001611a479291906126a8565b60405160208183030381529060405280519060200120905092915050565b6000807f7fffffffffffffffffffffffffffffff5d576e7357a4501ddfe92f46681b20a08360001c1115611aa0576000600391509150611b69565b601b8560ff1614158015611ab85750601c8560ff1614155b15611aca576000600491509150611b69565b600060018787878760405160008152602001604052604051611aef9493929190612932565b6020604051602081039080840390855afa158015611b11573d6000803e3d6000fd5b505050602060405103519050600073ffffffffffffffffffffffffffffffffffffffff168173ffffffffffffffffffffffffffffffffffffffff161415611b6057600060019250925050611b69565b80600092509250505b94509492505050565b60008060007f7fffffffffffffffffffffffffffffffffffffffffffffffffffffffffffffff60001b841690506000601b60ff8660001c901c611bb59190612c85565b9050611bc387828885611a65565b935093505050935093915050565b60008383834630604051602001611bec9594939291906128df565b6040516020818303038152906040528051906020012090509392505050565b6000611c1e611c1984612b32565b612b0d565b905082815260208101848484011115611c3657600080fd5b611c41848285612e16565b509392505050565b600081359050611c588161325f565b92915050565b600081359050611c6d81613276565b92915050565b600081359050611c828161328d565b92915050565b60008083601f840112611c9a57600080fd5b8235905067ffffffffffffffff811115611cb357600080fd5b602083019150836001820283011115611ccb57600080fd5b9250929050565b600082601f830112611ce357600080fd5b8135611cf3848260208601611c0b565b91505092915050565b60006101208284031215611d0f57600080fd5b81905092915050565b60006101208284031215611d2b57600080fd5b611d36610120612b0d565b90506000611d4684828501611c49565b6000830152506020611d5a84828501611c49565b6020830152506040611d6e84828501611c49565b6040830152506060611d8284828501611c49565b6060830152506080611d9684828501611e0c565b60808301525060a0611daa84828501611e0c565b60a08301525060c0611dbe84828501611e0c565b60c08301525060e0611dd284828501611e0c565b60e08301525061010082013567ffffffffffffffff811115611df357600080fd5b611dff84828501611cd2565b6101008301525092915050565b600081359050611e1b816132a4565b92915050565b600060208284031215611e3357600080fd5b6000611e4184828501611c49565b91505092915050565b60008060408385031215611e5d57600080fd5b6000611e6b85828601611c49565b9250506020611e7c85828601611e0c565b9150509250929050565b60008060008060808587031215611e9c57600080fd5b6000611eaa87828801611c49565b9450506020611ebb87828801611e0c565b9350506040611ecc87828801611c49565b9250506060611edd87828801611e0c565b91505092959194509250565b600060208284031215611efb57600080fd5b6000611f0984828501611c5e565b91505092915050565b60008060408385031215611f2557600080fd5b6000611f3385828601611c5e565b9250506020611f4485828601611c49565b9150509250929050565b600060208284031215611f6057600080fd5b6000611f6e84828501611c73565b91505092915050565b60008060008060408587031215611f8d57600080fd5b600085013567ffffffffffffffff811115611fa757600080fd5b611fb387828801611c88565b9450945050602085013567ffffffffffffffff811115611fd257600080fd5b611fde87828801611c88565b925092505092959194509250565b60008060006040848603121561200157600080fd5b600084013567ffffffffffffffff81111561201b57600080fd5b61202786828701611cfc565b935050602084013567ffffffffffffffff81111561204457600080fd5b61205086828701611c88565b92509250509250925092565b6000806040838503121561206f57600080fd5b600083013567ffffffffffffffff81111561208957600080fd5b61209585828601611d18565b925050602083013567ffffffffffffffff8111156120b257600080fd5b6120be85828601611cd2565b9150509250929050565b60006120d4838361229d565b905092915050565b6120e581612d66565b82525050565b6120f481612d66565b82525050565b61210b61210682612d66565b612eb3565b82525050565b600061211c82612b6d565b6121268185612b9b565b93508360208202850161213885612b63565b8060005b85811015612174578484038952815161215585826120c8565b945061216083612b8e565b925060208a0199505060018101905061213c565b50829750879550505050505092915050565b61218f81612d78565b82525050565b61219e81612d84565b82525050565b6121b56121b082612d84565b612ec5565b82525050565b6121c481612d8e565b82525050565b60006121d68385612ba6565b93506121e3838584612e16565b6121ec83612f6e565b840190509392505050565b60006122038385612bb7565b9350612210838584612e16565b61221983612f6e565b840190509392505050565b600061222f82612b78565b6122398185612bb7565b9350612249818560208601612e25565b61225281612f6e565b840191505092915050565b600061226882612b78565b6122728185612bc8565b9350612282818560208601612e25565b80840191505092915050565b61229781612df1565b82525050565b60006122a882612b83565b6122b28185612bd3565b93506122c2818560208601612e25565b6122cb81612f6e565b840191505092915050565b60006122e182612b83565b6122eb8185612be4565b93506122fb818560208601612e25565b61230481612f6e565b840191505092915050565b600061231a82612b83565b6123248185612bf5565b9350612334818560208601612e25565b80840191505092915050565b600061234d601883612be4565b915061235882612f8c565b602082019050919050565b6000612370602083612be4565b915061237b82612fb5565b602082019050919050565b6000612393601f83612be4565b915061239e82612fde565b602082019050919050565b60006123b6601c83612bf5565b91506123c182613007565b601c82019050919050565b60006123d9600283612bf5565b91506123e482613030565b600282019050919050565b60006123fc603583612be4565b915061240782613059565b604082019050919050565b600061241f602283612be4565b915061242a826130a8565b604082019050919050565b6000612442602283612be4565b915061244d826130f7565b604082019050919050565b6000612465601783612bf5565b915061247082613146565b601782019050919050565b6000612488602f83612be4565b91506124938261316f565b604082019050919050565b60006124ab600f83612be4565b91506124b6826131be565b602082019050919050565b60006124ce601183612bf5565b91506124d9826131e7565b601182019050919050565b60006124f1602f83612be4565b91506124fc82613210565b604082019050919050565b6000610120830161251b6000840184612c00565b61252860008601826120dc565b506125366020840184612c00565b61254360208601826120dc565b506125516040840184612c00565b61255e60408601826120dc565b5061256c6060840184612c00565b61257960608601826120dc565b506125876080840184612c6e565b6125946080860182612616565b506125a260a0840184612c6e565b6125af60a0860182612616565b506125bd60c0840184612c6e565b6125ca60c0860182612616565b506125d860e0840184612c6e565b6125e560e0860182612616565b506125f4610100840184612c17565b8583036101008701526126088382846121ca565b925050508091505092915050565b61261f81612dda565b82525050565b61262e81612dda565b82525050565b61263d81612de4565b82525050565b600061264f828461225d565b915081905092915050565b6000612666828561225d565b915061267282846120fa565b6014820191508190509392505050565b600061268d826123a9565b915061269982846121a4565b60208201915081905092915050565b60006126b3826123cc565b91506126bf82856121a4565b6020820191506126cf82846121a4565b6020820191508190509392505050565b60006126ea82612458565b91506126f6828561230f565b9150612701826124c1565b915061270d828461230f565b91508190509392505050565b600060208201905061272e60008301846120eb565b92915050565b600060a08201905061274960008301886120eb565b818103602083015261275b8187612111565b9050818103604083015261276f8186612224565b905061277e60608301856121bb565b81810360808301526127908184612224565b90509695505050505050565b60006040820190506127b160008301856120eb565b6127be6020830184612625565b9392505050565b60006080820190506127da60008301876120eb565b6127e76020830186612625565b6127f460408301856120eb565b6128016060830184612625565b95945050505050565b600060208201905061281f6000830184612186565b92915050565b600060408201905061283a6000830185612186565b818103602083015261284c8184612224565b90509392505050565b600060208201905061286a6000830184612195565b92915050565b600060e082019050612885600083018a612195565b61289260208301896120eb565b61289f60408301886120eb565b6128ac606083018761228e565b6128b96080830186612625565b6128c660a0830185612625565b6128d360c0830184612195565b98975050505050505050565b600060a0820190506128f46000830188612195565b6129016020830187612195565b61290e6040830186612195565b61291b6060830185612625565b61292860808301846120eb565b9695505050505050565b60006080820190506129476000830187612195565b6129546020830186612634565b6129616040830185612195565b61296e6060830184612195565b95945050505050565b6000602082019050818103600083015261299181846122d6565b905092915050565b600060208201905081810360008301526129b281612340565b9050919050565b600060208201905081810360008301526129d281612363565b9050919050565b600060208201905081810360008301526129f281612386565b9050919050565b60006020820190508181036000830152612a12816123ef565b9050919050565b60006020820190508181036000830152612a3281612412565b9050919050565b60006020820190508181036000830152612a5281612435565b9050919050565b60006020820190508181036000830152612a728161247b565b9050919050565b60006020820190508181036000830152612a928161249e565b9050919050565b60006020820190508181036000830152612ab2816124e4565b9050919050565b60006040820190508181036000830152612ad38186612507565b90508181036020830152612ae88184866121f7565b9050949350505050565b6000602082019050612b076000830184612625565b92915050565b6000612b17612b28565b9050612b238282612e82565b919050565b6000604051905090565b600067ffffffffffffffff821115612b4d57612b4c612f3f565b5b612b5682612f6e565b9050602081019050919050565b6000819050919050565b600060019050919050565b600081519050919050565b600081519050919050565b6000602082019050919050565b600081905092915050565b600082825260208201905092915050565b600082825260208201905092915050565b600081905092915050565b600082825260208201905092915050565b600082825260208201905092915050565b600081905092915050565b6000612c0f6020840184611c49565b905092915050565b60008083356001602003843603038112612c3057600080fd5b83810192508235915060208301925067ffffffffffffffff821115612c5457600080fd5b600182023603841315612c6657600080fd5b509250929050565b6000612c7d6020840184611e0c565b905092915050565b6000612c9082612dda565b9150612c9b83612dda565b9250827fffffffffffffffffffffffffffffffffffffffffffffffffffffffffffffffff03821115612cd057612ccf612ee1565b5b828201905092915050565b6000612ce682612dda565b9150612cf183612dda565b925082612d0157612d00612f10565b5b828204905092915050565b6000612d1782612dda565b9150612d2283612dda565b9250817fffffffffffffffffffffffffffffffffffffffffffffffffffffffffffffffff0483118215151615612d5b57612d5a612ee1565b5b828202905092915050565b6000612d7182612dba565b9050919050565b60008115159050919050565b6000819050919050565b60007fffffffff0000000000000000000000000000000000000000000000000000000082169050919050565b600073ffffffffffffffffffffffffffffffffffffffff82169050919050565b6000819050919050565b600060ff82169050919050565b6000612dfc82612de4565b9050919050565b6000612e0f3683611d18565b9050919050565b82818337600083830152505050565b60005b83811015612e43578082015181840152602081019050612e28565b83811115612e52576000848401525b50505050565b6000612e6382612dda565b91506000821415612e7757612e76612ee1565b5b600182039050919050565b612e8b82612f6e565b810181811067ffffffffffffffff82111715612eaa57612ea9612f3f565b5b80604052505050565b6000612ebe82612ecf565b9050919050565b6000819050919050565b6000612eda82612f7f565b9050919050565b7f4e487b7100000000000000000000000000000000000000000000000000000000600052601160045260246000fd5b7f4e487b7100000000000000000000000000000000000000000000000000000000600052601260045260246000fd5b7f4e487b7100000000000000000000000000000000000000000000000000000000600052604160045260246000fd5b6000601f19601f8301169050919050565b60008160601b9050919050565b7f45434453413a20696e76616c6964207369676e61747572650000000000000000600082015250565b7f537472696e67733a20686578206c656e67746820696e73756666696369656e74600082015250565b7f45434453413a20696e76616c6964207369676e6174757265206c656e67746800600082015250565b7f19457468657265756d205369676e6564204d6573736167653a0a333200000000600082015250565b7f1901000000000000000000000000000000000000000000000000000000000000600082015250565b7f54657374466f727761726465723a206f776e6572736869702070726f6f66206460008201527f6f6573206e6f74206d6174636820726571756573740000000000000000000000602082015250565b7f45434453413a20696e76616c6964207369676e6174757265202773272076616c60008201527f7565000000000000000000000000000000000000000000000000000000000000602082015250565b7f45434453413a20696e76616c6964207369676e6174757265202776272076616c60008201527f7565000000000000000000000000000000000000000000000000000000000000602082015250565b7f416363657373436f6e74726f6c3a206163636f756e7420000000000000000000600082015250565b7f54657374466f727761726465723a207369676e617475726520646f6573206e6f60008201527f74206d6174636820726571756573740000000000000000000000000000000000602082015250565b7f53657373696f6e20457870697265640000000000000000000000000000000000600082015250565b7f206973206d697373696e6720726f6c6520000000000000000000000000000000600082015250565b7f416363657373436f6e74726f6c3a2063616e206f6e6c792072656e6f756e636560008201527f20726f6c657320666f722073656c660000000000000000000000000000000000602082015250565b61326881612d66565b811461327357600080fd5b50565b61327f81612d84565b811461328a57600080fd5b50565b61329681612d8e565b81146132a157600080fd5b50565b6132ad81612dda565b81146132b857600080fd5b5056fea2646970667358221220753ba6acd33983415fc6796b519e61852aee8804dd3ac420cbacef76c5e5d5a764736f6c63430008040033",
  "linkReferences": {},
  "deployedLinkReferences": {}
}