{
  "_format": "hh-sol-artifact-1",
  "contractName": "EssentialForwarder",
  "sourceName": "contracts/Forwarder.sol",
  "abi": [
    {
      "inputs": [
        {
          "internalType": "string",
          "name": "name",
          "type": "string"
        }
      ],
      "stateMutability": "nonpayable",
      "type": "constructor"
    },
    {
      "anonymous": false,
      "inputs": [
        {
          "indexed": true,
          "internalType": "bytes32",
          "name": "role",
          "type": "bytes32"
        },
        {
          "indexed": true,
          "internalType": "bytes32",
          "name": "previousAdminRole",
          "type": "bytes32"
        },
        {
          "indexed": true,
          "internalType": "bytes32",
          "name": "newAdminRole",
          "type": "bytes32"
        }
      ],
      "name": "RoleAdminChanged",
      "type": "event"
    },
    {
      "anonymous": false,
      "inputs": [
        {
          "indexed": true,
          "internalType": "bytes32",
          "name": "role",
          "type": "bytes32"
        },
        {
          "indexed": true,
          "internalType": "address",
          "name": "account",
          "type": "address"
        },
        {
          "indexed": true,
          "internalType": "address",
          "name": "sender",
          "type": "address"
        }
      ],
      "name": "RoleGranted",
      "type": "event"
    },
    {
      "anonymous": false,
      "inputs": [
        {
          "indexed": true,
          "internalType": "bytes32",
          "name": "role",
          "type": "bytes32"
        },
        {
          "indexed": true,
          "internalType": "address",
          "name": "account",
          "type": "address"
        },
        {
          "indexed": true,
          "internalType": "address",
          "name": "sender",
          "type": "address"
        }
      ],
      "name": "RoleRevoked",
      "type": "event"
    },
    {
      "inputs": [],
      "name": "ADMIN_ROLE",
      "outputs": [
        {
          "internalType": "bytes32",
          "name": "",
          "type": "bytes32"
        }
      ],
      "stateMutability": "view",
      "type": "function"
    },
    {
      "inputs": [],
      "name": "DEFAULT_ADMIN_ROLE",
      "outputs": [
        {
          "internalType": "bytes32",
          "name": "",
          "type": "bytes32"
        }
      ],
      "stateMutability": "view",
      "type": "function"
    },
    {
      "inputs": [
        {
          "components": [
            {
              "internalType": "address",
              "name": "from",
              "type": "address"
            },
            {
              "internalType": "address",
              "name": "to",
              "type": "address"
            },
            {
              "internalType": "uint256",
              "name": "value",
              "type": "uint256"
            },
            {
              "internalType": "uint256",
              "name": "gas",
              "type": "uint256"
            },
            {
              "internalType": "uint256",
              "name": "nonce",
              "type": "uint256"
            },
            {
              "internalType": "bytes",
              "name": "data",
              "type": "bytes"
            }
          ],
          "internalType": "struct EssentialForwarder.ForwardRequest",
          "name": "req",
          "type": "tuple"
        },
        {
          "internalType": "bytes",
          "name": "signature",
          "type": "bytes"
        }
      ],
      "name": "execute",
      "outputs": [
        {
          "internalType": "bool",
          "name": "",
          "type": "bool"
        },
        {
          "internalType": "bytes",
          "name": "",
          "type": "bytes"
        }
      ],
      "stateMutability": "payable",
      "type": "function"
    },
    {
      "inputs": [
        {
          "components": [
            {
              "internalType": "address",
              "name": "from",
              "type": "address"
            },
            {
              "internalType": "address",
              "name": "to",
              "type": "address"
            },
            {
              "internalType": "uint256",
              "name": "value",
              "type": "uint256"
            },
            {
              "internalType": "uint256",
              "name": "gas",
              "type": "uint256"
            },
            {
              "internalType": "uint256",
              "name": "nonce",
              "type": "uint256"
            },
            {
              "internalType": "bytes",
              "name": "data",
              "type": "bytes"
            }
          ],
          "internalType": "struct EssentialForwarder.ForwardRequest",
          "name": "req",
          "type": "tuple"
        },
        {
          "internalType": "bytes",
          "name": "signature",
          "type": "bytes"
        }
      ],
      "name": "executeTrusted",
      "outputs": [
        {
          "internalType": "bool",
          "name": "",
          "type": "bool"
        },
        {
          "internalType": "bytes",
          "name": "",
          "type": "bytes"
        }
      ],
      "stateMutability": "payable",
      "type": "function"
    },
    {
      "inputs": [
        {
          "internalType": "address",
          "name": "from",
          "type": "address"
        }
      ],
      "name": "getNonce",
      "outputs": [
        {
          "internalType": "uint256",
          "name": "",
          "type": "uint256"
        }
      ],
      "stateMutability": "view",
      "type": "function"
    },
    {
      "inputs": [
        {
          "internalType": "bytes32",
          "name": "role",
          "type": "bytes32"
        }
      ],
      "name": "getRoleAdmin",
      "outputs": [
        {
          "internalType": "bytes32",
          "name": "",
          "type": "bytes32"
        }
      ],
      "stateMutability": "view",
      "type": "function"
    },
    {
      "inputs": [
        {
          "internalType": "bytes32",
          "name": "role",
          "type": "bytes32"
        },
        {
          "internalType": "address",
          "name": "account",
          "type": "address"
        }
      ],
      "name": "grantRole",
      "outputs": [],
      "stateMutability": "nonpayable",
      "type": "function"
    },
    {
      "inputs": [
        {
          "internalType": "bytes32",
          "name": "role",
          "type": "bytes32"
        },
        {
          "internalType": "address",
          "name": "account",
          "type": "address"
        }
      ],
      "name": "hasRole",
      "outputs": [
        {
          "internalType": "bool",
          "name": "",
          "type": "bool"
        }
      ],
      "stateMutability": "view",
      "type": "function"
    },
    {
      "inputs": [
        {
          "internalType": "bytes32",
          "name": "role",
          "type": "bytes32"
        },
        {
          "internalType": "address",
          "name": "account",
          "type": "address"
        }
      ],
      "name": "renounceRole",
      "outputs": [],
      "stateMutability": "nonpayable",
      "type": "function"
    },
    {
      "inputs": [
        {
          "internalType": "bytes32",
          "name": "role",
          "type": "bytes32"
        },
        {
          "internalType": "address",
          "name": "account",
          "type": "address"
        }
      ],
      "name": "revokeRole",
      "outputs": [],
      "stateMutability": "nonpayable",
      "type": "function"
    },
    {
      "inputs": [
        {
          "internalType": "bytes4",
          "name": "interfaceId",
          "type": "bytes4"
        }
      ],
      "name": "supportsInterface",
      "outputs": [
        {
          "internalType": "bool",
          "name": "",
          "type": "bool"
        }
      ],
      "stateMutability": "view",
      "type": "function"
    },
    {
      "inputs": [
        {
          "components": [
            {
              "internalType": "address",
              "name": "from",
              "type": "address"
            },
            {
              "internalType": "address",
              "name": "to",
              "type": "address"
            },
            {
              "internalType": "uint256",
              "name": "value",
              "type": "uint256"
            },
            {
              "internalType": "uint256",
              "name": "gas",
              "type": "uint256"
            },
            {
              "internalType": "uint256",
              "name": "nonce",
              "type": "uint256"
            },
            {
              "internalType": "bytes",
              "name": "data",
              "type": "bytes"
            }
          ],
          "internalType": "struct EssentialForwarder.ForwardRequest",
          "name": "req",
          "type": "tuple"
        },
        {
          "internalType": "bytes",
          "name": "signature",
          "type": "bytes"
        }
      ],
      "name": "verify",
      "outputs": [
        {
          "internalType": "bool",
          "name": "",
          "type": "bool"
        }
      ],
      "stateMutability": "view",
      "type": "function"
    }
  ],
  "bytecode": "0x6101406040523480156200001257600080fd5b5060405162002b0238038062002b02833981810160405281019062000038919062000399565b806040518060400160405280600581526020017f302e302e3100000000000000000000000000000000000000000000000000000081525060008280519060200120905060008280519060200120905060007f8b73c3c69bb8fe3d512ecc4cf759cc79239f7b179b0ffacaa9a75d522b39400f90508260e081815250508161010081815250504660a08181525050620000d88184846200017260201b60201c565b608081815250503073ffffffffffffffffffffffffffffffffffffffff1660c08173ffffffffffffffffffffffffffffffffffffffff1660601b815250508061012081815250505050505050620001396000801b33620001ae60201b60201c565b6200016b7fa49807205ce4d355092ef5a8a18f56e8913cf4a201fbe287825b095693c2177533620001ae60201b60201c565b50620005c1565b600083838346306040516020016200018f95949392919062000411565b6040516020818303038152906040528051906020012090509392505050565b620001c08282620001c460201b60201c565b5050565b620001d68282620002b560201b60201c565b620002b157600160008084815260200190815260200160002060000160008373ffffffffffffffffffffffffffffffffffffffff1673ffffffffffffffffffffffffffffffffffffffff16815260200190815260200160002060006101000a81548160ff021916908315150217905550620002566200031f60201b60201c565b73ffffffffffffffffffffffffffffffffffffffff168173ffffffffffffffffffffffffffffffffffffffff16837f2f8788117e7eff1d82e926ec794901d17c78024a50270940304540a733656f0d60405160405180910390a45b5050565b600080600084815260200190815260200160002060000160008373ffffffffffffffffffffffffffffffffffffffff1673ffffffffffffffffffffffffffffffffffffffff16815260200190815260200160002060009054906101000a900460ff16905092915050565b600033905090565b60006200033e620003388462000497565b6200046e565b9050828152602081018484840111156200035757600080fd5b6200036484828562000515565b509392505050565b600082601f8301126200037e57600080fd5b81516200039084826020860162000327565b91505092915050565b600060208284031215620003ac57600080fd5b600082015167ffffffffffffffff811115620003c757600080fd5b620003d5848285016200036c565b91505092915050565b620003e981620004cd565b82525050565b620003fa81620004e1565b82525050565b6200040b816200050b565b82525050565b600060a082019050620004286000830188620003ef565b620004376020830187620003ef565b620004466040830186620003ef565b62000455606083018562000400565b620004646080830184620003de565b9695505050505050565b60006200047a6200048d565b90506200048882826200054b565b919050565b6000604051905090565b600067ffffffffffffffff821115620004b557620004b462000581565b5b620004c082620005b0565b9050602081019050919050565b6000620004da82620004eb565b9050919050565b6000819050919050565b600073ffffffffffffffffffffffffffffffffffffffff82169050919050565b6000819050919050565b60005b838110156200053557808201518184015260208101905062000518565b8381111562000545576000848401525b50505050565b6200055682620005b0565b810181811067ffffffffffffffff8211171562000578576200057762000581565b5b80604052505050565b7f4e487b7100000000000000000000000000000000000000000000000000000000600052604160045260246000fd5b6000601f19601f8301169050919050565b60805160a05160c05160601c60e05161010051610120516124ee6200061460003960006110f20152600061113401526000611113015260006110480152600061109e015260006110c701526124ee6000f3fe6080604052600436106100a75760003560e01c806347153f821161006457806347153f82146101e657806375b238fc1461021757806391d1485414610242578063a217fddf1461027f578063bf5d3bdb146102aa578063d547741f146102e7576100a7565b806301ffc9a7146100ac57806316055b86146100e9578063248a9ca31461011a5780632d0335ab146101575780632f2ff15d1461019457806336568abe146101bd575b600080fd5b3480156100b857600080fd5b506100d360048036038101906100ce919061182c565b610310565b6040516100e09190611c86565b60405180910390f35b61010360048036038101906100fe9190611855565b61038a565b604051610111929190611ca1565b60405180910390f35b34801561012657600080fd5b50610141600480360381019061013c91906117c7565b6103da565b60405161014e9190611cd1565b60405180910390f35b34801561016357600080fd5b5061017e6004803603810190610179919061179e565b6103f9565b60405161018b9190611ef5565b60405180910390f35b3480156101a057600080fd5b506101bb60048036038101906101b691906117f0565b610442565b005b3480156101c957600080fd5b506101e460048036038101906101df91906117f0565b61046b565b005b61020060048036038101906101fb9190611855565b6104ee565b60405161020e929190611ca1565b60405180910390f35b34801561022357600080fd5b5061022c61050b565b6040516102399190611cd1565b60405180910390f35b34801561024e57600080fd5b50610269600480360381019061026491906117f0565b61052f565b6040516102769190611c86565b60405180910390f35b34801561028b57600080fd5b50610294610599565b6040516102a19190611cd1565b60405180910390f35b3480156102b657600080fd5b506102d160048036038101906102cc9190611855565b6105a0565b6040516102de9190611c86565b60405180910390f35b3480156102f357600080fd5b5061030e600480360381019061030991906117f0565b610756565b005b60007f7965db0b000000000000000000000000000000000000000000000000000000007bffffffffffffffffffffffffffffffffffffffffffffffffffffffff1916827bffffffffffffffffffffffffffffffffffffffffffffffffffffffff1916148061038357506103828261077f565b5b9050919050565b600060607fa49807205ce4d355092ef5a8a18f56e8913cf4a201fbe287825b095693c217756103c0816103bb6107e9565b6107f1565b6103cd868686600161088e565b9250925050935093915050565b6000806000838152602001908152602001600020600101549050919050565b6000600160008373ffffffffffffffffffffffffffffffffffffffff1673ffffffffffffffffffffffffffffffffffffffff168152602001908152602001600020549050919050565b61044b826103da565b61045c816104576107e9565b6107f1565b6104668383610b48565b505050565b6104736107e9565b73ffffffffffffffffffffffffffffffffffffffff168173ffffffffffffffffffffffffffffffffffffffff16146104e0576040517f08c379a00000000000000000000000000000000000000000000000000000000081526004016104d790611ed5565b60405180910390fd5b6104ea8282610c28565b5050565b600060606104ff858585600061088e565b91509150935093915050565b7fa49807205ce4d355092ef5a8a18f56e8913cf4a201fbe287825b095693c2177581565b600080600084815260200190815260200160002060000160008373ffffffffffffffffffffffffffffffffffffffff1673ffffffffffffffffffffffffffffffffffffffff16815260200190815260200160002060009054906101000a900460ff16905092915050565b6000801b81565b6000806106a984848080601f016020809104026020016040519081016040528093929190818152602001838380828437600081840152601f19601f8201169050808301925050505050505061069b7fdd8f4b70b0f4393e889bd39128a30628a78b61816a9eb8199759e7a349657e48886000016020810190610622919061179e565b896020016020810190610635919061179e565b8a604001358b606001358c608001358d8060a001906106549190611f10565b604051610662929190611bac565b60405180910390206040516020016106809796959493929190611cec565b60405160208183030381529060405280519060200120610d09565b610d2390919063ffffffff16565b90508460800135600160008760000160208101906106c7919061179e565b73ffffffffffffffffffffffffffffffffffffffff1673ffffffffffffffffffffffffffffffffffffffff1681526020019081526020016000205414801561074c575084600001602081019061071d919061179e565b73ffffffffffffffffffffffffffffffffffffffff168173ffffffffffffffffffffffffffffffffffffffff16145b9150509392505050565b61075f826103da565b6107708161076b6107e9565b6107f1565b61077a8383610c28565b505050565b60007f01ffc9a7000000000000000000000000000000000000000000000000000000007bffffffffffffffffffffffffffffffffffffffffffffffffffffffff1916827bffffffffffffffffffffffffffffffffffffffffffffffffffffffff1916149050919050565b600033905090565b6107fb828261052f565b61088a576108208173ffffffffffffffffffffffffffffffffffffffff166014610d4a565b61082e8360001c6020610d4a565b60405160200161083f929190611c4c565b6040516020818303038152906040526040517f08c379a00000000000000000000000000000000000000000000000000000000081526004016108819190611df3565b60405180910390fd5b5050565b6000606061089d8686866105a0565b6108dc576040517f08c379a00000000000000000000000000000000000000000000000000000000081526004016108d390611eb5565b60405180910390fd5b600186608001356108ed9190611fb5565b60016000886000016020810190610904919061179e565b73ffffffffffffffffffffffffffffffffffffffff1673ffffffffffffffffffffffffffffffffffffffff1681526020019081526020016000208190555060006040518060c00160405280886000016020810190610962919061179e565b73ffffffffffffffffffffffffffffffffffffffff168152602001886020016020810190610990919061179e565b73ffffffffffffffffffffffffffffffffffffffff168152602001886040013581526020018860600135815260200188608001358152602001888060a001906109d99190611f10565b8080601f016020809104026020016040519081016040528093929190818152602001838380828437600081840152601f19601f820116905080830192505050505050508152509050600080886020016020810190610a37919061179e565b73ffffffffffffffffffffffffffffffffffffffff16836060015184604001518560a00151600115158a151514610a6f576000610a72565b60015b60ff168760000151604051602001610a8c93929190611bdc565b604051602081830303815290604052604051610aa89190611bc5565b600060405180830381858888f193505050503d8060008114610ae6576040519150601f19603f3d011682016040523d82523d6000602084013e610aeb565b606091505b5091509150603f8360600151610b01919061200b565b5a11610b36577f4e487b7100000000000000000000000000000000000000000000000000000000600052600160045260246000fd5b81819450945050505094509492505050565b610b52828261052f565b610c2457600160008084815260200190815260200160002060000160008373ffffffffffffffffffffffffffffffffffffffff1673ffffffffffffffffffffffffffffffffffffffff16815260200190815260200160002060006101000a81548160ff021916908315150217905550610bc96107e9565b73ffffffffffffffffffffffffffffffffffffffff168173ffffffffffffffffffffffffffffffffffffffff16837f2f8788117e7eff1d82e926ec794901d17c78024a50270940304540a733656f0d60405160405180910390a45b5050565b610c32828261052f565b15610d0557600080600084815260200190815260200160002060000160008373ffffffffffffffffffffffffffffffffffffffff1673ffffffffffffffffffffffffffffffffffffffff16815260200190815260200160002060006101000a81548160ff021916908315150217905550610caa6107e9565b73ffffffffffffffffffffffffffffffffffffffff168173ffffffffffffffffffffffffffffffffffffffff16837ff6391f5c32d9c69d2a47ea670b442974b53935d1edc7fd64eb21e047a839171b60405160405180910390a45b5050565b6000610d1c610d16611044565b8361115e565b9050919050565b6000806000610d328585611191565b91509150610d3f81611214565b819250505092915050565b606060006002836002610d5d919061203c565b610d679190611fb5565b67ffffffffffffffff811115610da6577f4e487b7100000000000000000000000000000000000000000000000000000000600052604160045260246000fd5b6040519080825280601f01601f191660200182016040528015610dd85781602001600182028036833780820191505090505b5090507f300000000000000000000000000000000000000000000000000000000000000081600081518110610e36577f4e487b7100000000000000000000000000000000000000000000000000000000600052603260045260246000fd5b60200101907effffffffffffffffffffffffffffffffffffffffffffffffffffffffffffff1916908160001a9053507f780000000000000000000000000000000000000000000000000000000000000081600181518110610ec0577f4e487b7100000000000000000000000000000000000000000000000000000000600052603260045260246000fd5b60200101907effffffffffffffffffffffffffffffffffffffffffffffffffffffffffffff1916908160001a90535060006001846002610f00919061203c565b610f0a9190611fb5565b90505b6001811115610ff6577f3031323334353637383961626364656600000000000000000000000000000000600f861660108110610f72577f4e487b7100000000000000000000000000000000000000000000000000000000600052603260045260246000fd5b1a60f81b828281518110610faf577f4e487b7100000000000000000000000000000000000000000000000000000000600052603260045260246000fd5b60200101907effffffffffffffffffffffffffffffffffffffffffffffffffffffffffffff1916908160001a905350600485901c945080610fef90612163565b9050610f0d565b506000841461103a576040517f08c379a000000000000000000000000000000000000000000000000000000000815260040161103190611e35565b60405180910390fd5b8091505092915050565b60007f000000000000000000000000000000000000000000000000000000000000000073ffffffffffffffffffffffffffffffffffffffff163073ffffffffffffffffffffffffffffffffffffffff161480156110c057507f000000000000000000000000000000000000000000000000000000000000000046145b156110ed577f0000000000000000000000000000000000000000000000000000000000000000905061115b565b6111587f00000000000000000000000000000000000000000000000000000000000000007f00000000000000000000000000000000000000000000000000000000000000007f0000000000000000000000000000000000000000000000000000000000000000611565565b90505b90565b60008282604051602001611173929190611c15565b60405160208183030381529060405280519060200120905092915050565b6000806041835114156111d35760008060006020860151925060408601519150606086015160001a90506111c78782858561159f565b9450945050505061120d565b6040835114156112045760008060208501519150604085015190506111f98683836116ac565b93509350505061120d565b60006002915091505b9250929050565b6000600481111561124e577f4e487b7100000000000000000000000000000000000000000000000000000000600052602160045260246000fd5b816004811115611287577f4e487b7100000000000000000000000000000000000000000000000000000000600052602160045260246000fd5b141561129257611562565b600160048111156112cc577f4e487b7100000000000000000000000000000000000000000000000000000000600052602160045260246000fd5b816004811115611305577f4e487b7100000000000000000000000000000000000000000000000000000000600052602160045260246000fd5b1415611346576040517f08c379a000000000000000000000000000000000000000000000000000000000815260040161133d90611e15565b60405180910390fd5b60026004811115611380577f4e487b7100000000000000000000000000000000000000000000000000000000600052602160045260246000fd5b8160048111156113b9577f4e487b7100000000000000000000000000000000000000000000000000000000600052602160045260246000fd5b14156113fa576040517f08c379a00000000000000000000000000000000000000000000000000000000081526004016113f190611e55565b60405180910390fd5b60036004811115611434577f4e487b7100000000000000000000000000000000000000000000000000000000600052602160045260246000fd5b81600481111561146d577f4e487b7100000000000000000000000000000000000000000000000000000000600052602160045260246000fd5b14156114ae576040517f08c379a00000000000000000000000000000000000000000000000000000000081526004016114a590611e75565b60405180910390fd5b6004808111156114e7577f4e487b7100000000000000000000000000000000000000000000000000000000600052602160045260246000fd5b816004811115611520577f4e487b7100000000000000000000000000000000000000000000000000000000600052602160045260246000fd5b1415611561576040517f08c379a000000000000000000000000000000000000000000000000000000000815260040161155890611e95565b60405180910390fd5b5b50565b60008383834630604051602001611580959493929190611d5b565b6040516020818303038152906040528051906020012090509392505050565b6000807f7fffffffffffffffffffffffffffffff5d576e7357a4501ddfe92f46681b20a08360001c11156115da5760006003915091506116a3565b601b8560ff16141580156115f25750601c8560ff1614155b156116045760006004915091506116a3565b6000600187878787604051600081526020016040526040516116299493929190611dae565b6020604051602081039080840390855afa15801561164b573d6000803e3d6000fd5b505050602060405103519050600073ffffffffffffffffffffffffffffffffffffffff168173ffffffffffffffffffffffffffffffffffffffff16141561169a576000600192509250506116a3565b80600092509250505b94509492505050565b6000806000807f7fffffffffffffffffffffffffffffffffffffffffffffffffffffffffffffff85169150601b8560ff1c0190506116ec8782888561159f565b935093505050935093915050565b60008135905061170981612473565b92915050565b60008135905061171e8161248a565b92915050565b600081359050611733816124a1565b92915050565b60008083601f84011261174b57600080fd5b8235905067ffffffffffffffff81111561176457600080fd5b60208301915083600182028301111561177c57600080fd5b9250929050565b600060c0828403121561179557600080fd5b81905092915050565b6000602082840312156117b057600080fd5b60006117be848285016116fa565b91505092915050565b6000602082840312156117d957600080fd5b60006117e78482850161170f565b91505092915050565b6000806040838503121561180357600080fd5b60006118118582860161170f565b9250506020611822858286016116fa565b9150509250929050565b60006020828403121561183e57600080fd5b600061184c84828501611724565b91505092915050565b60008060006040848603121561186a57600080fd5b600084013567ffffffffffffffff81111561188457600080fd5b61189086828701611783565b935050602084013567ffffffffffffffff8111156118ad57600080fd5b6118b986828701611739565b92509250509250925092565b6118ce81612096565b82525050565b6118e56118e082612096565b61218d565b82525050565b6118f4816120a8565b82525050565b611903816120b4565b82525050565b61191a611915826120b4565b61219f565b82525050565b600061192c8385611f8e565b9350611939838584612121565b82840190509392505050565b600061195082611f67565b61195a8185611f7d565b935061196a818560208601612130565b61197381612223565b840191505092915050565b600061198982611f67565b6119938185611f8e565b93506119a3818560208601612130565b80840191505092915050565b60006119ba82611f72565b6119c48185611f99565b93506119d4818560208601612130565b6119dd81612223565b840191505092915050565b60006119f382611f72565b6119fd8185611faa565b9350611a0d818560208601612130565b80840191505092915050565b6000611a26601883611f99565b9150611a3182612241565b602082019050919050565b6000611a49602083611f99565b9150611a548261226a565b602082019050919050565b6000611a6c601f83611f99565b9150611a7782612293565b602082019050919050565b6000611a8f600283611faa565b9150611a9a826122bc565b600282019050919050565b6000611ab2602283611f99565b9150611abd826122e5565b604082019050919050565b6000611ad5602283611f99565b9150611ae082612334565b604082019050919050565b6000611af8601783611faa565b9150611b0382612383565b601782019050919050565b6000611b1b602f83611f99565b9150611b26826123ac565b604082019050919050565b6000611b3e601183611faa565b9150611b49826123fb565b601182019050919050565b6000611b61602f83611f99565b9150611b6c82612424565b604082019050919050565b611b808161210a565b82525050565b611b97611b928261210a565b6121bb565b82525050565b611ba681612114565b82525050565b6000611bb9828486611920565b91508190509392505050565b6000611bd1828461197e565b915081905092915050565b6000611be8828661197e565b9150611bf48285611b86565b602082019150611c0482846118d4565b601482019150819050949350505050565b6000611c2082611a82565b9150611c2c8285611909565b602082019150611c3c8284611909565b6020820191508190509392505050565b6000611c5782611aeb565b9150611c6382856119e8565b9150611c6e82611b31565b9150611c7a82846119e8565b91508190509392505050565b6000602082019050611c9b60008301846118eb565b92915050565b6000604082019050611cb660008301856118eb565b8181036020830152611cc88184611945565b90509392505050565b6000602082019050611ce660008301846118fa565b92915050565b600060e082019050611d01600083018a6118fa565b611d0e60208301896118c5565b611d1b60408301886118c5565b611d286060830187611b77565b611d356080830186611b77565b611d4260a0830185611b77565b611d4f60c08301846118fa565b98975050505050505050565b600060a082019050611d7060008301886118fa565b611d7d60208301876118fa565b611d8a60408301866118fa565b611d976060830185611b77565b611da460808301846118c5565b9695505050505050565b6000608082019050611dc360008301876118fa565b611dd06020830186611b9d565b611ddd60408301856118fa565b611dea60608301846118fa565b95945050505050565b60006020820190508181036000830152611e0d81846119af565b905092915050565b60006020820190508181036000830152611e2e81611a19565b9050919050565b60006020820190508181036000830152611e4e81611a3c565b9050919050565b60006020820190508181036000830152611e6e81611a5f565b9050919050565b60006020820190508181036000830152611e8e81611aa5565b9050919050565b60006020820190508181036000830152611eae81611ac8565b9050919050565b60006020820190508181036000830152611ece81611b0e565b9050919050565b60006020820190508181036000830152611eee81611b54565b9050919050565b6000602082019050611f0a6000830184611b77565b92915050565b60008083356001602003843603038112611f2957600080fd5b80840192508235915067ffffffffffffffff821115611f4757600080fd5b602083019250600182023603831315611f5f57600080fd5b509250929050565b600081519050919050565b600081519050919050565b600082825260208201905092915050565b600081905092915050565b600082825260208201905092915050565b600081905092915050565b6000611fc08261210a565b9150611fcb8361210a565b9250827fffffffffffffffffffffffffffffffffffffffffffffffffffffffffffffffff0382111561200057611fff6121c5565b5b828201905092915050565b60006120168261210a565b91506120218361210a565b925082612031576120306121f4565b5b828204905092915050565b60006120478261210a565b91506120528361210a565b9250817fffffffffffffffffffffffffffffffffffffffffffffffffffffffffffffffff048311821515161561208b5761208a6121c5565b5b828202905092915050565b60006120a1826120ea565b9050919050565b60008115159050919050565b6000819050919050565b60007fffffffff0000000000000000000000000000000000000000000000000000000082169050919050565b600073ffffffffffffffffffffffffffffffffffffffff82169050919050565b6000819050919050565b600060ff82169050919050565b82818337600083830152505050565b60005b8381101561214e578082015181840152602081019050612133565b8381111561215d576000848401525b50505050565b600061216e8261210a565b91506000821415612182576121816121c5565b5b600182039050919050565b6000612198826121a9565b9050919050565b6000819050919050565b60006121b482612234565b9050919050565b6000819050919050565b7f4e487b7100000000000000000000000000000000000000000000000000000000600052601160045260246000fd5b7f4e487b7100000000000000000000000000000000000000000000000000000000600052601260045260246000fd5b6000601f19601f8301169050919050565b60008160601b9050919050565b7f45434453413a20696e76616c6964207369676e61747572650000000000000000600082015250565b7f537472696e67733a20686578206c656e67746820696e73756666696369656e74600082015250565b7f45434453413a20696e76616c6964207369676e6174757265206c656e67746800600082015250565b7f1901000000000000000000000000000000000000000000000000000000000000600082015250565b7f45434453413a20696e76616c6964207369676e6174757265202773272076616c60008201527f7565000000000000000000000000000000000000000000000000000000000000602082015250565b7f45434453413a20696e76616c6964207369676e6174757265202776272076616c60008201527f7565000000000000000000000000000000000000000000000000000000000000602082015250565b7f416363657373436f6e74726f6c3a206163636f756e7420000000000000000000600082015250565b7f54657374466f727761726465723a207369676e617475726520646f6573206e6f60008201527f74206d6174636820726571756573740000000000000000000000000000000000602082015250565b7f206973206d697373696e6720726f6c6520000000000000000000000000000000600082015250565b7f416363657373436f6e74726f6c3a2063616e206f6e6c792072656e6f756e636560008201527f20726f6c657320666f722073656c660000000000000000000000000000000000602082015250565b61247c81612096565b811461248757600080fd5b50565b612493816120b4565b811461249e57600080fd5b50565b6124aa816120be565b81146124b557600080fd5b5056fea264697066735822122061ea836f4a0ef68e17d0a75794a1f293aeb0b7b002680ab18c46ecf52961e5ee64736f6c63430008040033",
  "linkReferences": {},
  "deployedLinkReferences": {}
}