{
  "_format": "hh-sol-artifact-1",
  "contractName": "Counter",
  "sourceName": "contracts/Counter.sol",
  "abi": [
    {
      "inputs": [
        {
          "internalType": "address",
          "name": "trustedForwarder",
          "type": "address"
        }
      ],
      "stateMutability": "nonpayable",
      "type": "constructor"
    },
    {
      "inputs": [
        {
          "internalType": "address",
          "name": "",
          "type": "address"
        }
      ],
      "name": "count",
      "outputs": [
        {
          "internalType": "uint256",
          "name": "",
          "type": "uint256"
        }
      ],
      "stateMutability": "view",
      "type": "function"
    },
    {
      "inputs": [],
      "name": "increment",
      "outputs": [],
      "stateMutability": "nonpayable",
      "type": "function"
    },
    {
      "inputs": [],
      "name": "incrementFromForwarderOnly",
      "outputs": [],
      "stateMutability": "nonpayable",
      "type": "function"
    },
    {
      "inputs": [],
      "name": "isTrustedExecution",
      "outputs": [
        {
          "internalType": "bool",
          "name": "",
          "type": "bool"
        }
      ],
      "stateMutability": "view",
      "type": "function"
    },
    {
      "inputs": [
        {
          "internalType": "address",
          "name": "forwarder",
          "type": "address"
        }
      ],
      "name": "isTrustedForwarder",
      "outputs": [
        {
          "internalType": "bool",
          "name": "",
          "type": "bool"
        }
      ],
      "stateMutability": "view",
      "type": "function"
    },
    {
      "inputs": [],
      "name": "owner",
      "outputs": [
        {
          "internalType": "address",
          "name": "",
          "type": "address"
        }
      ],
      "stateMutability": "view",
      "type": "function"
    },
    {
      "inputs": [
        {
          "internalType": "address",
          "name": "trustedForwarder",
          "type": "address"
        }
      ],
      "name": "setTrustedForwarder",
      "outputs": [],
      "stateMutability": "nonpayable",
      "type": "function"
    }
  ],
  "bytecode": "0x608060405234801561001057600080fd5b50604051610933380380610933833981810160405281019061003291906100d0565b8033600160006101000a81548173ffffffffffffffffffffffffffffffffffffffff021916908373ffffffffffffffffffffffffffffffffffffffff160217905550806000806101000a81548173ffffffffffffffffffffffffffffffffffffffff021916908373ffffffffffffffffffffffffffffffffffffffff1602179055505050610142565b6000815190506100ca8161012b565b92915050565b6000602082840312156100e257600080fd5b60006100f0848285016100bb565b91505092915050565b60006101048261010b565b9050919050565b600073ffffffffffffffffffffffffffffffffffffffff82169050919050565b610134816100f9565b811461013f57600080fd5b50565b6107e2806101516000396000f3fe608060405234801561001057600080fd5b506004361061007d5760003560e01c80638da5cb5b1161005b5780638da5cb5b146100ec578063a97666991461010a578063d09de08a14610128578063da742228146101325761007d565b806305d85eda14610082578063572b6c05146100b257806370699884146100e2575b600080fd5b61009c60048036038101906100979190610538565b61014e565b6040516100a9919061064a565b60405180910390f35b6100cc60048036038101906100c79190610538565b610166565b6040516100d991906105ef565b60405180910390f35b6100ea6101bf565b005b6100f46102ae565b60405161010191906105d4565b60405180910390f35b6101126102d4565b60405161011f91906105ef565b60405180910390f35b6101306102f4565b005b61014c60048036038101906101479190610538565b610354565b005b60026020528060005260406000206000915090505481565b60008060009054906101000a900473ffffffffffffffffffffffffffffffffffffffff1673ffffffffffffffffffffffffffffffffffffffff168273ffffffffffffffffffffffffffffffffffffffff16149050919050565b6101c833610166565b610207576040517f08c379a00000000000000000000000000000000000000000000000000000000081526004016101fe9061062a565b60405180910390fd5b61020f6102d4565b61024e576040517f08c379a00000000000000000000000000000000000000000000000000000000081526004016102459061062a565b60405180910390fd5b60016002600061025c610427565b73ffffffffffffffffffffffffffffffffffffffff1673ffffffffffffffffffffffffffffffffffffffff16815260200190815260200160002060008282546102a59190610676565b92505081905550565b600160009054906101000a900473ffffffffffffffffffffffffffffffffffffffff1681565b600080603436033590506102e781610459565b600160ff16811491505090565b600160026000610302610427565b73ffffffffffffffffffffffffffffffffffffffff1673ffffffffffffffffffffffffffffffffffffffff168152602001908152602001600020600082825461034b9190610676565b92505081905550565b600160009054906101000a900473ffffffffffffffffffffffffffffffffffffffff1673ffffffffffffffffffffffffffffffffffffffff163373ffffffffffffffffffffffffffffffffffffffff16146103e4576040517f08c379a00000000000000000000000000000000000000000000000000000000081526004016103db9061060a565b60405180910390fd5b806000806101000a81548173ffffffffffffffffffffffffffffffffffffffff021916908373ffffffffffffffffffffffffffffffffffffffff16021790555050565b600061043233610166565b1561044657601436033560601c9050610455565b61044e6104f2565b9050610456565b5b90565b6104ef8160405160240161046d919061064a565b6040516020818303038152906040527ff5b1bba9000000000000000000000000000000000000000000000000000000007bffffffffffffffffffffffffffffffffffffffffffffffffffffffff19166020820180517bffffffffffffffffffffffffffffffffffffffffffffffffffffffff83818316178352505050506104fa565b50565b600033905090565b60008151905060006a636f6e736f6c652e6c6f679050602083016000808483855afa5050505050565b60008135905061053281610795565b92915050565b60006020828403121561054a57600080fd5b600061055884828501610523565b91505092915050565b61056a816106cc565b82525050565b610579816106de565b82525050565b600061058c600383610665565b915061059782610743565b602082019050919050565b60006105af600b83610665565b91506105ba8261076c565b602082019050919050565b6105ce8161070a565b82525050565b60006020820190506105e96000830184610561565b92915050565b60006020820190506106046000830184610570565b92915050565b600060208201905081810360008301526106238161057f565b9050919050565b60006020820190508181036000830152610643816105a2565b9050919050565b600060208201905061065f60008301846105c5565b92915050565b600082825260208201905092915050565b60006106818261070a565b915061068c8361070a565b9250827fffffffffffffffffffffffffffffffffffffffffffffffffffffffffffffffff038211156106c1576106c0610714565b5b828201905092915050565b60006106d7826106ea565b9050919050565b60008115159050919050565b600073ffffffffffffffffffffffffffffffffffffffff82169050919050565b6000819050919050565b7f4e487b7100000000000000000000000000000000000000000000000000000000600052601160045260246000fd5b7f3430330000000000000000000000000000000000000000000000000000000000600082015250565b7f436f756e7465723a343239000000000000000000000000000000000000000000600082015250565b61079e816106cc565b81146107a957600080fd5b5056fea2646970667358221220bdce373ad3674aad20753367dd4bd366b4e0be02c2c436a1fa67778ea456334a64736f6c63430008040033",
  "linkReferences": {},
  "deployedLinkReferences": {}
}