{
  "_format": "hh-sol-artifact-1",
  "contractName": "Counter",
  "sourceName": "contracts/Counter.sol",
  "abi": [
    {
      "inputs": [
        {
          "internalType": "address",
          "name": "trustedForwarder",
          "type": "address"
        }
      ],
      "stateMutability": "nonpayable",
      "type": "constructor"
    },
    {
      "inputs": [
        {
          "internalType": "address",
          "name": "",
          "type": "address"
        }
      ],
      "name": "count",
      "outputs": [
        {
          "internalType": "uint256",
          "name": "",
          "type": "uint256"
        }
      ],
      "stateMutability": "view",
      "type": "function"
    },
    {
      "inputs": [],
      "name": "increment",
      "outputs": [],
      "stateMutability": "nonpayable",
      "type": "function"
    },
    {
      "inputs": [],
      "name": "incrementFromForwarderOnly",
      "outputs": [],
      "stateMutability": "nonpayable",
      "type": "function"
    },
    {
      "inputs": [],
      "name": "isTrustedExecution",
      "outputs": [
        {
          "internalType": "bool",
          "name": "",
          "type": "bool"
        }
      ],
      "stateMutability": "view",
      "type": "function"
    },
    {
      "inputs": [
        {
          "internalType": "address",
          "name": "forwarder",
          "type": "address"
        }
      ],
      "name": "isTrustedForwarder",
      "outputs": [
        {
          "internalType": "bool",
          "name": "",
          "type": "bool"
        }
      ],
      "stateMutability": "view",
      "type": "function"
    },
    {
      "inputs": [],
      "name": "owner",
      "outputs": [
        {
          "internalType": "address",
          "name": "",
          "type": "address"
        }
      ],
      "stateMutability": "view",
      "type": "function"
    },
    {
      "inputs": [
        {
          "internalType": "address",
          "name": "trustedForwarder",
          "type": "address"
        }
      ],
      "name": "setTrustedForwarder",
      "outputs": [],
      "stateMutability": "nonpayable",
      "type": "function"
    }
  ],
  "bytecode": "0x608060405234801561001057600080fd5b50604051610936380380610936833981810160405281019061003291906100d0565b8033600160006101000a81548173ffffffffffffffffffffffffffffffffffffffff021916908373ffffffffffffffffffffffffffffffffffffffff160217905550806000806101000a81548173ffffffffffffffffffffffffffffffffffffffff021916908373ffffffffffffffffffffffffffffffffffffffff1602179055505050610142565b6000815190506100ca8161012b565b92915050565b6000602082840312156100e257600080fd5b60006100f0848285016100bb565b91505092915050565b60006101048261010b565b9050919050565b600073ffffffffffffffffffffffffffffffffffffffff82169050919050565b610134816100f9565b811461013f57600080fd5b50565b6107e5806101516000396000f3fe608060405234801561001057600080fd5b506004361061007d5760003560e01c80638da5cb5b1161005b5780638da5cb5b146100ec578063a97666991461010a578063d09de08a14610128578063da742228146101325761007d565b806305d85eda14610082578063572b6c05146100b257806370699884146100e2575b600080fd5b61009c6004803603810190610097919061053b565b61014e565b6040516100a9919061064d565b60405180910390f35b6100cc60048036038101906100c7919061053b565b610166565b6040516100d991906105f2565b60405180910390f35b6100ea6101bf565b005b6100f46102ae565b60405161010191906105d7565b60405180910390f35b6101126102d4565b60405161011f91906105f2565b60405180910390f35b6101306102f7565b005b61014c6004803603810190610147919061053b565b610357565b005b60026020528060005260406000206000915090505481565b60008060009054906101000a900473ffffffffffffffffffffffffffffffffffffffff1673ffffffffffffffffffffffffffffffffffffffff168273ffffffffffffffffffffffffffffffffffffffff16149050919050565b6101c833610166565b610207576040517f08c379a00000000000000000000000000000000000000000000000000000000081526004016101fe9061062d565b60405180910390fd5b61020f6102d4565b61024e576040517f08c379a00000000000000000000000000000000000000000000000000000000081526004016102459061062d565b60405180910390fd5b60016002600061025c61042a565b73ffffffffffffffffffffffffffffffffffffffff1673ffffffffffffffffffffffffffffffffffffffff16815260200190815260200160002060008282546102a59190610679565b92505081905550565b600160009054906101000a900473ffffffffffffffffffffffffffffffffffffffff1681565b600080603436033590506102ea8160ff1661045c565b60018160ff161491505090565b60016002600061030561042a565b73ffffffffffffffffffffffffffffffffffffffff1673ffffffffffffffffffffffffffffffffffffffff168152602001908152602001600020600082825461034e9190610679565b92505081905550565b600160009054906101000a900473ffffffffffffffffffffffffffffffffffffffff1673ffffffffffffffffffffffffffffffffffffffff163373ffffffffffffffffffffffffffffffffffffffff16146103e7576040517f08c379a00000000000000000000000000000000000000000000000000000000081526004016103de9061060d565b60405180910390fd5b806000806101000a81548173ffffffffffffffffffffffffffffffffffffffff021916908373ffffffffffffffffffffffffffffffffffffffff16021790555050565b600061043533610166565b1561044957601436033560601c9050610458565b6104516104f5565b9050610459565b5b90565b6104f281604051602401610470919061064d565b6040516020818303038152906040527ff5b1bba9000000000000000000000000000000000000000000000000000000007bffffffffffffffffffffffffffffffffffffffffffffffffffffffff19166020820180517bffffffffffffffffffffffffffffffffffffffffffffffffffffffff83818316178352505050506104fd565b50565b600033905090565b60008151905060006a636f6e736f6c652e6c6f679050602083016000808483855afa5050505050565b60008135905061053581610798565b92915050565b60006020828403121561054d57600080fd5b600061055b84828501610526565b91505092915050565b61056d816106cf565b82525050565b61057c816106e1565b82525050565b600061058f600383610668565b915061059a82610746565b602082019050919050565b60006105b2600b83610668565b91506105bd8261076f565b602082019050919050565b6105d18161070d565b82525050565b60006020820190506105ec6000830184610564565b92915050565b60006020820190506106076000830184610573565b92915050565b6000602082019050818103600083015261062681610582565b9050919050565b60006020820190508181036000830152610646816105a5565b9050919050565b600060208201905061066260008301846105c8565b92915050565b600082825260208201905092915050565b60006106848261070d565b915061068f8361070d565b9250827fffffffffffffffffffffffffffffffffffffffffffffffffffffffffffffffff038211156106c4576106c3610717565b5b828201905092915050565b60006106da826106ed565b9050919050565b60008115159050919050565b600073ffffffffffffffffffffffffffffffffffffffff82169050919050565b6000819050919050565b7f4e487b7100000000000000000000000000000000000000000000000000000000600052601160045260246000fd5b7f3430330000000000000000000000000000000000000000000000000000000000600082015250565b7f436f756e7465723a343239000000000000000000000000000000000000000000600082015250565b6107a1816106cf565b81146107ac57600080fd5b5056fea26469706673582212204323bfebc306de2f2fd278b5de47cf73563c11d466c2d89926e290dfff74cca164736f6c63430008040033",
  "linkReferences": {},
  "deployedLinkReferences": {}
}